:100000000C942A000C9434000C9434000C943400AA
:100010000C9434000C9434000C9434000C94340090
:100020000C9434000C9434000C9434000C94340080
:100030000C9434000C9434000C9434000C94340070
:100040000C9434000C9434000C9434000C94340060
:100050000C94340011241FBECFE5D8E0DEBFCDBF25
:100060000E947B000C940D030C9400001ABA87E8E0
:1000700086B980E487B9089597B18F70982B97B9A6
:10008000369A349BFECF81E28A95F1F7000024B1C5
:1000900085B190E0982F8827820F911D0895CF9207
:1000A000DF92EF92FF926B017C0120E030E0A9012A
:1000B0000E9477021816D4F42FE784E89EE12150BD
:1000C00080409040E1F700C0000020E030E040E8D0
:1000D0005FE3C701B6010E940A016B017C0120E0C9
:1000E00030E0A9010E947702181634F3FF90EF90D8
:1000F000DF90CF9008958FE384BB8CE085BB0F2EFB
:10010000FAE03F2EF02D0F2EF9E0FF2EF02D0F2EEE
:10011000F1E2CF2EF02D0F2EF1E1DF2EF02D0F2E7C
:10012000FCE0EF2EF02D0E94360080E00E943C00A3
:100130008C0181E00E943C00EC01B801110F880B9A
:10014000990B0E94EB0120E030E040E251E40E9474
:100150007C0220E030EC4FE754E40E94770120E07D
:1001600030E040E651E40E940B012B013C01BE014E
:10017000DD0F880B990B0E94EB014B015C0120E025
:1001800030E040E651E4C301B2010E940A019B0144
:10019000AC01C501B4010E947C0220E030EC4FE7C5
:1001A00054E40E94770120E030E040EA50E40E94ED
:1001B0000B014B015C010E944F0035BA60E070E01A
:1001C00080E090E40E944F00F5BA60E070E080E8C3
:1001D0009FE30E944F00C5BAA5019401C301B2017B
:1001E0000E940A0120E030E040E850E40E940A0149
:1001F0000E944F00D5BA60E070E080E090E40E9479
:100200004F00F5BA60E070E080E89FE30E944F0085
:10021000E5BA89CF5058BB27AA270E9422010C9427
:100220003D020E942F0238F00E94360220F039F47D
:100230009F3F19F426F40C942C020EF4E095E7FB92
:100240000C942602E92F0E944E0258F3BA17620757
:1002500073078407950720F079F4A6F50C947002D3
:100260000EF4E0950B2EBA2FA02D0B01B9019001D1
:100270000C01CA01A0011124FF27591B99F0593F15
:1002800050F4503E68F11A16F040A22F232F342F5D
:100290004427585FF3CF469537952795A795F040AB
:1002A0005395C9F77EF41F16BA0B620B730B840BC0
:1002B000BAF09150A1F0FF0FBB1F661F771F881F78
:1002C000C2F70EC0BA0F621F731F841F48F48795D0
:1002D00077956795B795F7959E3F08F0B0CF9395C2
:1002E000880F08F09927EE0F9795879508950E943B
:1002F0008B010C943D020E94360258F00E942F029E
:1003000040F029F45F3F29F00C94260251110C941F
:1003100071020C942C020E944E0268F39923B1F3EF
:10032000552391F3951B550BBB27AA27621773071B
:10033000840738F09F5F5F4F220F331F441FAA1FAF
:10034000A9F335D00E2E3AF0E0E832D0915050406B
:10035000E695001CCAF72BD0FE2F29D0660F771F19
:10036000881FBB1F261737074807AB07B0E809F0FF
:10037000BB0B802DBF01FF2793585F4F3AF09E3F84
:10038000510578F00C9426020C9471025F3FE4F35F
:10039000983ED4F3869577956795B795F7959F5FC7
:1003A000C9F7880F911D9695879597F90895E1E013
:1003B000660F771F881FBB1F621773078407BA0772
:1003C00020F0621B730B840BBA0BEE1F88F7E095CD
:1003D0000895E89409C097FB3EF490958095709538
:1003E00061957F4F8F4F9F4F9923A9F0F92F96E981
:1003F000BB279395F695879577956795B795F111F6
:10040000F8CFFAF4BB0F11F460FF1BC06F5F7F4F92
:100410008F4F9F4F16C0882311F096E911C07723A4
:1004200021F09EE8872F762F05C0662371F096E8AD
:10043000862F70E060E02AF09A95660F771F881F7C
:10044000DAF7880F9695879597F9089597F99F673A
:1004500080E870E060E008959FEF80EC089500244C
:100460000A941616170618060906089500240A9419
:1004700012161306140605060895092E0394000C9F
:1004800011F4882352F0BB0F40F4BF2B11F460FF2E
:1004900004C06F5F7F4F8F4F9F4F089557FD905857
:1004A000440F551F59F05F3F71F04795880F97FB38
:1004B000991F61F09F3F79F08795089512161306F2
:1004C0001406551FF2CF4695F1DF08C01616170621
:1004D0001806991FF1CF8695710561050894089556
:1004E000E894BB2766277727CB0197F908950E94E8
:1004F000E90208F48FEF08950E948F020C943D02E8
:100500000E942F0238F00E94360220F0952311F04D
:100510000C9426020C942C0211240C9471020E945B
:100520004E0270F3959FC1F3950F50E0551F629FE7
:10053000F001729FBB27F00DB11D639FAA27F00D3C
:10054000B11DAA1F649F6627B00DA11D661F829F63
:100550002227B00DA11D621F739FB00DA11D621F48
:10056000839FA00D611D221F749F3327A00D611D65
:10057000231F849F600D211D822F762F6A2F112447
:100580009F5750409AF0F1F088234AF0EE0FFF1F7A
:10059000BB1F661F771F881F91505040A9F79E3FD1
:1005A000510580F00C9426020C9471025F3FE4F335
:1005B000983ED4F3869577956795B795F795E79527
:1005C0009F5FC1F7FE2B880F911D9695879597F930
:1005D0000895990F0008550FAA0BE0E8FEEF1616D4
:1005E0001706E807F907C0F012161306E407F50727
:1005F00098F0621B730B840B950B39F40A2661F09B
:10060000232B242B252B21F408950A2609F4A1403D
:0E061000A6958FEF811D811D0895F894FFCFF0
:00000001FF
